{"abi":[{"type":"function","name":"createAccount","inputs":[{"name":"_name","type":"bytes","internalType":"bytes"}],"outputs":[],"stateMutability":"nonpayable"},{"type":"function","name":"getAddressFromName","inputs":[{"name":"_name","type":"bytes","internalType":"bytes"}],"outputs":[{"name":"","type":"address","internalType":"address"}],"stateMutability":"view"},{"type":"function","name":"getAllUsers","inputs":[],"outputs":[{"name":"","type":"tuple[]","internalType":"struct Authentication.User[]","components":[{"name":"name","type":"bytes","internalType":"bytes"},{"name":"address_","type":"address","internalType":"address"}]}],"stateMutability":"view"},{"type":"function","name":"getUserInfo","inputs":[{"name":"_userAddress","type":"address","internalType":"address"}],"outputs":[{"name":"","type":"tuple","internalType":"struct Authentication.User","components":[{"name":"name","type":"bytes","internalType":"bytes"},{"name":"address_","type":"address","internalType":"address"}]}],"stateMutability":"view"},{"type":"function","name":"getUserInfoFromName","inputs":[{"name":"_name","type":"bytes","internalType":"bytes"}],"outputs":[{"name":"","type":"tuple","internalType":"struct Authentication.User","components":[{"name":"name","type":"bytes","internalType":"bytes"},{"name":"address_","type":"address","internalType":"address"}]}],"stateMutability":"view"},{"type":"function","name":"usernameExist","inputs":[{"name":"_name","type":"bytes","internalType":"bytes"}],"outputs":[{"name":"","type":"bool","internalType":"bool"}],"stateMutability":"view"},{"type":"function","name":"users","inputs":[{"name":"","type":"uint256","internalType":"uint256"}],"outputs":[{"name":"name","type":"bytes","internalType":"bytes"},{"name":"address_","type":"address","internalType":"address"}],"stateMutability":"view"},{"type":"event","name":"MemberEnrolled","inputs":[{"name":"_address","type":"address","indexed":true,"internalType":"address"},{"name":"name","type":"bytes","indexed":true,"internalType":"bytes"}],"anonymous":false},{"type":"error","name":"NameNotAvailable","inputs":[]},{"type":"error","name":"ZeroAddressNotAllowed","inputs":[]}],"bytecode":{"object":"0x6080806040523461001657610974908161001b8239f35b5f80fdfe60406080815260049081361015610014575f80fd5b5f91823560e01c9081632ddbdcb614610505578163365b98b2146104a35781636386c1c71461045b578163a9ea858f1461020a578163e2842d791461010557508063f3c1cadd146100a85763fce0f3901461006d575f80fd5b346100a45760209061009661009b61008436610529565b6001600160a01b03939136919061075d565b6107a3565b54169051908152f35b5080fd5b50346100a4576100ee81610101936100966100e06100c536610529565b92906100cf6108f7565b506001600160a01b0393369161075d565b541681528060205220610910565b9051918291602083526020830190610734565b0390f35b839150346100a457816003193601126100a45760029081549067ffffffffffffffff82116101f75750918351602093610143858260051b018361062b565b80825283835284820193837f405787fa12a823e0f2b7631cc41b3ba8828b3321ca811111fa75cd3aa3bb5ace865b8483106101d35750505050508451938085019181865251809252858501958260051b8601019392955b8287106101a75785850386f35b9091929382806101c3600193603f198a82030186528851610734565b960192019601959291909261019a565b83896001926101e5859c999a9c610910565b81520192019201919097959497610171565b634e487b7160e01b845260419052602483fd5b8383346100a45761021a36610529565b91331561044c5761022c36848461075d565b815190805191602092838301906102448184846106ee565b600190830181815283900385019092205491926001600160a01b0392831661043c5761027c91859187519384928392519283916106ee565b810185815203019020916bffffffffffffffffffffffff60a01b9233848254161790553388528784528488209367ffffffffffffffff88116104295787906102ce826102c888546105c3565b886107c9565b8990601f83116001146103c6575089916103bb575b505f19600389901b1c191687821b1784555b808401933384865416178555600254680100000000000000008110156103a85780836103249201600255610577565b9190916103965788999a50808299989903610376575b5050505050505192839283378101838152039020337f34fe96c3f8b03703d59d1705bd1f444f323c116802ff4db850d2e706b64d81a48380a380f35b610380908261081c565b019254169082541617905585808080808061033a565b634e487b7160e01b8a52898b5260248afd5b634e487b7160e01b8a5260418b5260248afd5b90508601358a6102e3565b91601f198116878c52838c20938c905b868c8484106104105750505050106103f7575b50508087811b0184556102f5565b8701355f1960038a901b60f8161c1916905589806103e9565b860135875590950194938401938c9350908101906103d6565b634e487b7160e01b895260418a52602489fd5b85516350c7505b60e11b81528a90fd5b516342bcdf7f60e11b81528490fd5b90503461049f57602036600319011261049f57356001600160a01b0381169081900361049f5781610101936100ee926104926108f7565b5081528060205220610910565b8280fd5b839150346100a45760203660031901126100a457359060025482101561050257506104cd90610577565b50906104d88261064d565b916001808060a01b03910154166104f8825193838594855284019061070f565b9060208301520390f35b80fd5b5050346100a45760209061009661051e61008436610529565b541615159051908152f35b9060206003198301126105735760043567ffffffffffffffff9283821161057357806023830112156105735781600401359384116105735760248483010111610573576024019190565b5f80fd5b6002548110156105af5760025f5260011b7f405787fa12a823e0f2b7631cc41b3ba8828b3321ca811111fa75cd3aa3bb5ace01905f90565b634e487b7160e01b5f52603260045260245ffd5b90600182811c921680156105f1575b60208310146105dd57565b634e487b7160e01b5f52602260045260245ffd5b91607f16916105d2565b6040810190811067ffffffffffffffff82111761061757604052565b634e487b7160e01b5f52604160045260245ffd5b90601f8019910116810190811067ffffffffffffffff82111761061757604052565b9060405191825f825492610660846105c3565b9081845260019485811690815f146106cb575060011461068b575b50506106899250038361062b565b565b909391505f52602090815f20935f915b8183106106b357505061068993508201015f8061067b565b8554888401850152948501948794509183019161069b565b91505061068994506020925060ff191682840152151560051b8201015f8061067b565b5f5b8381106106ff5750505f910152565b81810151838201526020016106f0565b90602091610728815180928185528580860191016106ee565b601f01601f1916010190565b90602061074a835160408452604084019061070f565b928101516001600160a01b031691015290565b92919267ffffffffffffffff82116106175760405191610787601f8201601f19166020018461062b565b829481845281830111610573578281602093845f960137010152565b60206107bc9181604051938285809451938492016106ee565b8101600181520301902090565b90601f81116107d757505050565b5f91825260208220906020601f850160051c83019410610812575b601f0160051c01915b82811061080757505050565b8181556001016107fb565b90925082906107f2565b908082146108f35761082e81546105c3565b9067ffffffffffffffff82116106175781906108548261084e86546105c3565b866107c9565b5f90601f8311600114610888575f9261087d575b50508160011b915f199060031b1c1916179055565b015490505f80610868565b81526020808220858352818320935090601f1985169083905b8282106108da5750509084600195949392106108c2575b505050811b019055565b01545f1960f88460031b161c191690555f80806108b8565b84958192958501548155600180910196019401906108a1565b5050565b60405190610904826105fb565b5f602083606081520152565b9060405161091d816105fb565b6020819361092a8161064d565b8352600101546001600160a01b031691015256fea2646970667358221220c4ee2bbace55cb29e4738a4cd8c9200b6c6c5d7a2877808a23301b2cac070c5364736f6c63430008140033","linkReferences":{}},"methodIdentifiers":{"createAccount(bytes)":"a9ea858f","getAddressFromName(bytes)":"fce0f390","getAllUsers()":"e2842d79","getUserInfo(address)":"6386c1c7","getUserInfoFromName(bytes)":"f3c1cadd","usernameExist(bytes)":"2ddbdcb6","users(uint256)":"365b98b2"},"id":22}