{"abi":[{"type":"constructor","inputs":[{"name":"_OPToken","type":"address","internalType":"address"}],"stateMutability":"nonpayable"},{"type":"function","name":"OPToken","inputs":[],"outputs":[{"name":"","type":"address","internalType":"contract IERC20"}],"stateMutability":"view"},{"type":"function","name":"balancePlus","inputs":[{"name":"_address","type":"address","internalType":"address"},{"name":"_amount","type":"uint256","internalType":"uint256"}],"outputs":[],"stateMutability":"nonpayable"},{"type":"function","name":"balances","inputs":[{"name":"","type":"address","internalType":"address"}],"outputs":[{"name":"","type":"uint256","internalType":"uint256"}],"stateMutability":"view"},{"type":"function","name":"claimOwnership","inputs":[],"outputs":[],"stateMutability":"nonpayable"},{"type":"function","name":"contractBalance","inputs":[],"outputs":[{"name":"","type":"uint256","internalType":"uint256"}],"stateMutability":"view"},{"type":"function","name":"deposit","inputs":[{"name":"_amount","type":"uint256","internalType":"uint256"}],"outputs":[],"stateMutability":"nonpayable"},{"type":"function","name":"depositBalance","inputs":[],"outputs":[{"name":"","type":"uint256","internalType":"uint256"}],"stateMutability":"view"},{"type":"function","name":"getBalances","inputs":[{"name":"_address","type":"address","internalType":"address"}],"outputs":[{"name":"","type":"uint256","internalType":"uint256"}],"stateMutability":"view"},{"type":"function","name":"getTotalDeposit","inputs":[],"outputs":[{"name":"","type":"uint256","internalType":"uint256"}],"stateMutability":"view"},{"type":"function","name":"getTotalWithdrawal","inputs":[],"outputs":[{"name":"","type":"uint256","internalType":"uint256"}],"stateMutability":"view"},{"type":"function","name":"owner","inputs":[],"outputs":[{"name":"","type":"address","internalType":"address"}],"stateMutability":"view"},{"type":"function","name":"subtractFromBalance","inputs":[{"name":"_userAddress","type":"address","internalType":"address"},{"name":"_amount","type":"uint256","internalType":"uint256"}],"outputs":[],"stateMutability":"nonpayable"},{"type":"function","name":"totalFees","inputs":[],"outputs":[{"name":"","type":"uint256","internalType":"uint256"}],"stateMutability":"view"},{"type":"function","name":"transfer","inputs":[{"name":"_sender","type":"address","internalType":"address"},{"name":"_recipient","type":"address","internalType":"address"},{"name":"_amount","type":"uint256","internalType":"uint256"}],"outputs":[],"stateMutability":"nonpayable"},{"type":"function","name":"transferOwnership","inputs":[{"name":"_newOwner","type":"address","internalType":"address"}],"outputs":[],"stateMutability":"nonpayable"},{"type":"function","name":"withdraw","inputs":[{"name":"_amount","type":"uint256","internalType":"uint256"}],"outputs":[],"stateMutability":"nonpayable"},{"type":"event","name":"AdditionSuccessful","inputs":[{"name":"user","type":"address","indexed":false,"internalType":"address"},{"name":"_amount","type":"uint256","indexed":false,"internalType":"uint256"}],"anonymous":false},{"type":"event","name":"DeductionSuccessful","inputs":[{"name":"user","type":"address","indexed":false,"internalType":"address"},{"name":"_amount","type":"uint256","indexed":false,"internalType":"uint256"}],"anonymous":false},{"type":"event","name":"DepositSuccessful","inputs":[{"name":"user","type":"address","indexed":true,"internalType":"address"},{"name":"_amount","type":"uint256","indexed":false,"internalType":"uint256"}],"anonymous":false},{"type":"event","name":"TransferSuccessful","inputs":[{"name":"sender","type":"address","indexed":false,"internalType":"address"},{"name":"receiver","type":"address","indexed":false,"internalType":"address"},{"name":"_amount","type":"uint256","indexed":false,"internalType":"uint256"}],"anonymous":false},{"type":"event","name":"WithdrawalSuccessful","inputs":[{"name":"user","type":"address","indexed":true,"internalType":"address"},{"name":"_amount","type":"uint256","indexed":false,"internalType":"uint256"}],"anonymous":false},{"type":"error","name":"InsufficientBalance","inputs":[]},{"type":"error","name":"OnlyTheOwnerCanPerformThisAction","inputs":[]},{"type":"error","name":"YouAreNotTheNextOwner","inputs":[]}],"bytecode":{"object":"0x60803461007a57601f61093338819003918201601f19168301916001600160401b0383118484101761007e5780849260209460405283398101031261007a57516001600160a01b0381169081900361007a5760018060a01b031990815f5416175f55339060015416176001556040516108a090816100938239f35b5f80fd5b634e487b7160e01b5f52604160045260245ffdfe60406080815260049081361015610014575f80fd5b5f91823560e01c80630adecc041461077357806313114a9d1461075457806327e235e31461012e5780632dfdd2441461072c5780632e1a7d4d146106295780634e71e0c8146105d3578063572711841461054757806361bc1a49146104b15780638b7afe2e1461048b5780638da5cb5b1461046257806397df842314610443578063b6b55f25146102e3578063beabacc814610187578063c022215c1461016a578063c84aae171461012e5763f2fde38b146100ce575f80fd5b3461012a57602036600319011261012a576100e76107d4565b6001546001600160a01b0393919291908416330361011d575050166bffffffffffffffffffffffff60a01b600254161760025580f35b51630383739160e11b8152fd5b8280fd5b5050346101665760203660031901126101665760209181906001600160a01b036101566107d4565b1681526006845220549051908152f35b5080fd5b503461012a578260031936011261012a5760209250549051908152f35b503461012a57606036600319011261012a576101a16107d4565b602435916001600160a01b0380841684036102df5760443591818416918288526020926006845284888a205411156102cf5761022f92878a8694846101f18a8e8198865260068a5285205461085d565b908352600687528c832055815416928b519687958694859363a9059cbb60e01b8552840160209093929193604081019460018060a01b031681520152565b03925af180156102c557917fd6d3eb25a413c05d8107fc49deb2789bef7f612582b2482804c0b0423b6638ee96916102919493610297575b5050516001600160a01b039384168152939092166020840152604083019190915281906060820190565b0390a180f35b816102b692903d106102be575b6102ae81836107ee565b810190610824565b505f80610267565b503d6102a4565b86513d89823e3d90fd5b8751631e9acf1760e31b81528390fd5b8580fd5b50903461012a5760208060031936011261043f57835482516370a0823160e01b815233858201526001600160a01b0390911693803593918381602481895afa908115610435579085918891610400575b50106103f25781516323b872dd60e01b815233828201908152306020820152604081018690529095849187919082908a90829060600103925af19485156103e8577fb3ef81558ed1a50072a492984535a009da8b129c749500b387f1e5f4886bdde594956103cb575b50338652600683528186206103b286825461083c565b90556103bf85825461083c565b9055519283523392a280f35b6103e190843d86116102be576102ae81836107ee565b505f61039c565b82513d88823e3d90fd5b9051631e9acf1760e31b8152fd5b809250858092503d831161042e575b61041981836107ee565b8101031261042a578490515f610333565b8680fd5b503d61040f565b83513d89823e3d90fd5b8380fd5b5050346101665781600319360112610166576020906005549051908152f35b50503461016657816003193601126101665760015490516001600160a01b039091168152602090f35b505034610166578160031936011261016657806020923081526006845220549051908152f35b50903461012a578260031936011261012a57825481516370a0823160e01b81523093810193909352602090839060249082906001600160a01b03165afa91821561053d578392610506575b6020838351908152f35b9091506020813d8211610535575b81610521602093836107ee565b8101031261012a576020925051905f6104fc565b3d9150610514565b81513d85823e3d90fd5b5050346101665780600319360112610166577fe1782616f168afd763cc93f33685957909f8283c09c1ab30e5082c37c868d485906105836107d4565b6102916024359260018060a01b03831680875260066020526105a8858389205461083c565b908752600660205281872055519283928360209093929193604081019460018060a01b031681520152565b503461012a578260031936011261012a57600254916001600160a01b038316330361061c5750506bffffffffffffffffffffffff60a01b90338260015416176001551660025580f35b51632c90848f60e21b8152fd5b509190346101665760208060031936011261012a578335913384526006825282818520541061071d5781836106b895966106658260055461083c565b6005553388526006835283882061067d83825461085d565b90558754845163a9059cbb60e01b8152309281019283526020830193909352919687926001600160a01b03169183918a918391604090910190565b03925af1938415610713577ff4f855c53853d0277a9ff688aadbfe4cb795ca1d5af41704b62cb539f89939ec93946106f6575b50519283523392a280f35b61070c90833d85116102be576102ae81836107ee565b505f6106eb565b81513d87823e3d90fd5b51631e9acf1760e31b81528490fd5b505034610166578160031936011261016657905490516001600160a01b039091168152602090f35b5050346101665781600319360112610166576020906003549051908152f35b5050346101665780600319360112610166577f46790e27b16e53d6f170172bae83f4c4b31cd284c97367534d4c04edfe9e05eb906107af6107d4565b6102916024359260018060a01b03831680875260066020526105a8858389205461085d565b600435906001600160a01b03821682036107ea57565b5f80fd5b90601f8019910116810190811067ffffffffffffffff82111761081057604052565b634e487b7160e01b5f52604160045260245ffd5b908160209103126107ea575180151581036107ea5790565b9190820180921161084957565b634e487b7160e01b5f52601160045260245ffd5b919082039182116108495756fea264697066735822122064d2d04b977db68a2e86b9f1b7bdbd21571e3d35aae0853b600494d395f0e7b064736f6c63430008140033","linkReferences":{}},"methodIdentifiers":{"OPToken()":"2dfdd244","balancePlus(address,uint256)":"57271184","balances(address)":"27e235e3","claimOwnership()":"4e71e0c8","contractBalance()":"8b7afe2e","deposit(uint256)":"b6b55f25","depositBalance()":"61bc1a49","getBalances(address)":"c84aae17","getTotalDeposit()":"c022215c","getTotalWithdrawal()":"97df8423","owner()":"8da5cb5b","subtractFromBalance(address,uint256)":"0adecc04","totalFees()":"13114a9d","transfer(address,address,uint256)":"beabacc8","transferOwnership(address)":"f2fde38b","withdraw(uint256)":"2e1a7d4d"},"id":24}