{"abi":[{"type":"constructor","inputs":[{"name":"initialSupply","type":"uint256","internalType":"uint256"}],"stateMutability":"nonpayable"},{"type":"function","name":"FAUCET_AMOUNT","inputs":[],"outputs":[{"name":"","type":"uint256","internalType":"uint256"}],"stateMutability":"view"},{"type":"function","name":"FAUCET_COOLDOWN","inputs":[],"outputs":[{"name":"","type":"uint256","internalType":"uint256"}],"stateMutability":"view"},{"type":"function","name":"MAX_FAUCET_CLAIMS","inputs":[],"outputs":[{"name":"","type":"uint256","internalType":"uint256"}],"stateMutability":"view"},{"type":"function","name":"allowance","inputs":[{"name":"owner","type":"address","internalType":"address"},{"name":"spender","type":"address","internalType":"address"}],"outputs":[{"name":"","type":"uint256","internalType":"uint256"}],"stateMutability":"view"},{"type":"function","name":"approve","inputs":[{"name":"spender","type":"address","internalType":"address"},{"name":"value","type":"uint256","internalType":"uint256"}],"outputs":[{"name":"","type":"bool","internalType":"bool"}],"stateMutability":"nonpayable"},{"type":"function","name":"balanceOf","inputs":[{"name":"account","type":"address","internalType":"address"}],"outputs":[{"name":"","type":"uint256","internalType":"uint256"}],"stateMutability":"view"},{"type":"function","name":"claimFaucet","inputs":[],"outputs":[],"stateMutability":"nonpayable"},{"type":"function","name":"decimals","inputs":[],"outputs":[{"name":"","type":"uint8","internalType":"uint8"}],"stateMutability":"view"},{"type":"function","name":"faucetClaimCount","inputs":[{"name":"","type":"address","internalType":"address"}],"outputs":[{"name":"","type":"uint256","internalType":"uint256"}],"stateMutability":"view"},{"type":"function","name":"lastFaucetClaim","inputs":[{"name":"","type":"address","internalType":"address"}],"outputs":[{"name":"","type":"uint256","internalType":"uint256"}],"stateMutability":"view"},{"type":"function","name":"mintTo","inputs":[{"name":"to","type":"address","internalType":"address"},{"name":"amount","type":"uint256","internalType":"uint256"}],"outputs":[],"stateMutability":"nonpayable"},{"type":"function","name":"name","inputs":[],"outputs":[{"name":"","type":"string","internalType":"string"}],"stateMutability":"view"},{"type":"function","name":"owner","inputs":[],"outputs":[{"name":"","type":"address","internalType":"address"}],"stateMutability":"view"},{"type":"function","name":"renounceOwnership","inputs":[],"outputs":[],"stateMutability":"nonpayable"},{"type":"function","name":"symbol","inputs":[],"outputs":[{"name":"","type":"string","internalType":"string"}],"stateMutability":"view"},{"type":"function","name":"timeUntilNextClaim","inputs":[{"name":"user","type":"address","internalType":"address"}],"outputs":[{"name":"","type":"uint256","internalType":"uint256"}],"stateMutability":"view"},{"type":"function","name":"totalSupply","inputs":[],"outputs":[{"name":"","type":"uint256","internalType":"uint256"}],"stateMutability":"view"},{"type":"function","name":"transfer","inputs":[{"name":"to","type":"address","internalType":"address"},{"name":"value","type":"uint256","internalType":"uint256"}],"outputs":[{"name":"","type":"bool","internalType":"bool"}],"stateMutability":"nonpayable"},{"type":"function","name":"transferFrom","inputs":[{"name":"from","type":"address","internalType":"address"},{"name":"to","type":"address","internalType":"address"},{"name":"value","type":"uint256","internalType":"uint256"}],"outputs":[{"name":"","type":"bool","internalType":"bool"}],"stateMutability":"nonpayable"},{"type":"function","name":"transferOwnership","inputs":[{"name":"newOwner","type":"address","internalType":"address"}],"outputs":[],"stateMutability":"nonpayable"},{"type":"event","name":"Approval","inputs":[{"name":"owner","type":"address","indexed":true,"internalType":"address"},{"name":"spender","type":"address","indexed":true,"internalType":"address"},{"name":"value","type":"uint256","indexed":false,"internalType":"uint256"}],"anonymous":false},{"type":"event","name":"FaucetClaimed","inputs":[{"name":"claimer","type":"address","indexed":true,"internalType":"address"},{"name":"amount","type":"uint256","indexed":false,"internalType":"uint256"}],"anonymous":false},{"type":"event","name":"OwnershipTransferred","inputs":[{"name":"previousOwner","type":"address","indexed":true,"internalType":"address"},{"name":"newOwner","type":"address","indexed":true,"internalType":"address"}],"anonymous":false},{"type":"event","name":"Transfer","inputs":[{"name":"from","type":"address","indexed":true,"internalType":"address"},{"name":"to","type":"address","indexed":true,"internalType":"address"},{"name":"value","type":"uint256","indexed":false,"internalType":"uint256"}],"anonymous":false},{"type":"error","name":"ERC20InsufficientAllowance","inputs":[{"name":"spender","type":"address","internalType":"address"},{"name":"allowance","type":"uint256","internalType":"uint256"},{"name":"needed","type":"uint256","internalType":"uint256"}]},{"type":"error","name":"ERC20InsufficientBalance","inputs":[{"name":"sender","type":"address","internalType":"address"},{"name":"balance","type":"uint256","internalType":"uint256"},{"name":"needed","type":"uint256","internalType":"uint256"}]},{"type":"error","name":"ERC20InvalidApprover","inputs":[{"name":"approver","type":"address","internalType":"address"}]},{"type":"error","name":"ERC20InvalidReceiver","inputs":[{"name":"receiver","type":"address","internalType":"address"}]},{"type":"error","name":"ERC20InvalidSender","inputs":[{"name":"sender","type":"address","internalType":"address"}]},{"type":"error","name":"ERC20InvalidSpender","inputs":[{"name":"spender","type":"address","internalType":"address"}]},{"type":"error","name":"FaucetCooldownNotElapsed","inputs":[]},{"type":"error","name":"MaxClaimsReached","inputs":[]},{"type":"error","name":"OwnableInvalidOwner","inputs":[{"name":"owner","type":"address","internalType":"address"}]},{"type":"error","name":"OwnableUnauthorizedAccount","inputs":[{"name":"account","type":"address","internalType":"address"}]}],"bytecode":{"object":"0x608034620003d4576001600160401b0390601f601f1962000fe2388190038381018316850186811186821017620002e357859282916040528339602094859181010312620003d457519362000053620003d8565b92600b84526a293ab13134902a37b5b2b760a91b8585015262000075620003d8565b9360039182865262292aa160e91b878701528151848111620002e35783546001938482811c92168015620003c9575b8a831014620003b557818484931162000362575b50899084831160011462000303575f92620002f7575b50505f1982861b1c191690831b1783555b8551938411620002e35760049586548381811c91168015620002d8575b89821014620002c5578281116200027d575b50879185116001146200021857849550908492915f956200020c575b50501b925f19911b1c19161781555b3315620001f55760058054336001600160a01b0319821681179092556001600160a01b03167f8be0079c531659141344cd1fd0a4f28419497f9722a3daafe3b4186f6b6457e05f80a360025490838201809211620001e257505f917fddf252ad1be2c89b69c2b068fc378daa952ba7f163c4a11628f55a4df523b3ef91600255338352828152604083208481540190556040519384523393a3604051610be99081620003f98239f35b601190634e487b7160e01b5f525260245ffd5b6024905f60405191631e4fbdf760e01b8352820152fd5b015193505f806200012a565b929194841692865f5284885f20945f5b8a898383106200026557505050106200024b575b50505050811b01815562000139565b01519060f8845f19921b161c191690555f8080806200023c565b86860151895590970196948501948893500162000228565b875f52885f208380880160051c8201928b8910620002bb575b0160051c019084905b828110620002af5750506200010e565b5f81550184906200029f565b9250819262000296565b602288634e487b7160e01b5f525260245ffd5b90607f1690620000fc565b634e487b7160e01b5f52604160045260245ffd5b015190505f80620000ce565b908886941691875f528b5f20925f5b8d8282106200034b575050841162000333575b505050811b018355620000df565b01515f1983881b60f8161c191690555f808062000325565b838501518655899790950194938401930162000312565b909150855f52895f208480850160051c8201928c8610620003ab575b918791869594930160051c01915b8281106200039c575050620000b8565b5f81558594508791016200038c565b925081926200037e565b634e487b7160e01b5f52602260045260245ffd5b91607f1691620000a4565b5f80fd5b60408051919082016001600160401b03811183821017620002e35760405256fe60806040818152600480361015610014575f80fd5b5f92833560e01c90816306d2571c146109715750806306fdde0314610896578063095ea7b3146107ed57806318160ddd146107ce57806323b872dd146106dc578063313ce567146106c05780633966c493146106a4578063449a52f8146105f55780634fe153351461049357806370a082311461045c578063715018a6146103fc57806376697640146103d85780637d1d5d19146103ba5780638a877205146103825780638da5cb5b1461035957806392d82dbe1461032c57806395d89b411461020c578063a9059cbb146101db578063dd62ed3e1461018e5763f2fde38b146100fc575f80fd5b3461018a57602036600319011261018a576101156109a5565b9061011e610a1c565b6001600160a01b03918216928315610174575050600554826bffffffffffffffffffffffff60a01b821617600555167f8be0079c531659141344cd1fd0a4f28419497f9722a3daafe3b4186f6b6457e08380a380f35b51631e4fbdf760e01b8152908101849052602490fd5b8280fd5b5050346101d757806003193601126101d757806020926101ac6109a5565b6101b46109bf565b6001600160a01b0391821683526001865283832091168252845220549051908152f35b5080fd5b5050346101d757806003193601126101d7576020906102056101fb6109a5565b6024359033610a48565b5160018152f35b509190346101d757816003193601126101d757805190828454600181811c90808316928315610322575b602093848410811461030f578388529081156102f3575060011461029e575b505050829003601f01601f191682019267ffffffffffffffff84118385101761028b57508291826102879252826109d5565b0390f35b634e487b7160e01b815260418552602490fd5b8787529192508591837f8a35acfbc15ff81a39ae7d344fd709f28e8600b4aa8c65c6b64bfe7fe36bd19b5b8385106102df57505050508301015f8080610255565b8054888601830152930192849082016102c9565b60ff1916878501525050151560051b84010190505f8080610255565b634e487b7160e01b895260228a52602489fd5b91607f1691610236565b5050346101d75760203660031901126101d75760209061035261034d6109a5565b610b23565b9051908152f35b5050346101d757816003193601126101d75760055490516001600160a01b039091168152602090f35b5050346101d75760203660031901126101d75760209181906001600160a01b036103aa6109a5565b1681526006845220549051908152f35b5050346101d757816003193601126101d75760209051620151808152f35b5050346101d757816003193601126101d75760209051683635c9adc5dea000008152f35b8334610459578060031936011261045957610415610a1c565b600580546001600160a01b0319811690915581906001600160a01b03167f8be0079c531659141344cd1fd0a4f28419497f9722a3daafe3b4186f6b6457e08280a380f35b80fd5b5050346101d75760203660031901126101d75760209181906001600160a01b036104846109a5565b16815280845220549051908152f35b509190346101d757816003193601126101d75733825260206007815260038284205410156105e557338352600681528183205480151590816105bb575b506105ab573383526006815242828420556007815281832080549060018201809211610581575533156105945760025491683635c9adc5dea000009283810180911161058157907f5d4f415c63cd8a5874d9d291cdd64cec37e5dc236d90d659c958d109d78074b392916002553385528482528085208481540190558051848152857fddf252ad1be2c89b69c2b068fc378daa952ba7f163c4a11628f55a4df523b3ef843393a3519283523392a280f35b634e487b7160e01b855260118652602485fd5b815163ec442f0560e01b8152808501849052602490fd5b8151634c1252d960e11b81528490fd5b90506201518081018091116105d25742105f6104d0565b634e487b7160e01b845260118552602484fd5b815163c6efb6e160e01b81528490fd5b50903461018a578060031936011261018a5761060f6109a5565b906024359161061c610a1c565b6001600160a01b031692831561068f576002549083820180921161067c575084927fddf252ad1be2c89b69c2b068fc378daa952ba7f163c4a11628f55a4df523b3ef9260209260025585855284835280852082815401905551908152a380f35b634e487b7160e01b865260119052602485fd5b84602492519163ec442f0560e01b8352820152fd5b5050346101d757816003193601126101d7576020905160038152f35b5050346101d757816003193601126101d7576020905160128152f35b508234610459576060366003190112610459576106f76109a5565b6106ff6109bf565b916044359360018060a01b038316808352600160205286832033845260205286832054915f19831061073a575b602088610205898989610a48565b8683106107a257811561078b573315610774575082526001602090815286832033845281529186902090859003905582906102058761072c565b8751634a1406b160e11b8152908101849052602490fd5b875163e602df0560e01b8152908101849052602490fd5b8751637dc7a0d960e11b8152339181019182526020820193909352604081018790528291506060010390fd5b5050346101d757816003193601126101d7576020906002549051908152f35b503461018a578160031936011261018a576108066109a5565b60243590331561087f576001600160a01b031691821561086857508083602095338152600187528181208582528752205582519081527f8c5be1e5ebec7d5bd14f71427d1e84f3dd0314c0f7b2291e5b200ac8c7c3b925843392a35160018152f35b8351634a1406b160e11b8152908101859052602490fd5b835163e602df0560e01b8152808401869052602490fd5b509190346101d757816003193601126101d75780519082600354600181811c90808316928315610967575b602093848410811461030f578388529081156102f3575060011461091157505050829003601f01601f191682019267ffffffffffffffff84118385101761028b57508291826102879252826109d5565b600387529192508591837fc2575a0e9e593c00f959f8c92f12db2869c3395a3b0502d05e2516446f71f85b5b83851061095357505050508301015f8080610255565b80548886018301529301928490820161093d565b91607f16916108c1565b8490843461018a57602036600319011261018a576020926001600160a01b036109986109a5565b1681526007845220548152f35b600435906001600160a01b03821682036109bb57565b5f80fd5b602435906001600160a01b03821682036109bb57565b602080825282518183018190529093925f5b828110610a0857505060409293505f838284010152601f8019910116010190565b8181018601518482016040015285016109e7565b6005546001600160a01b03163303610a3057565b60405163118cdaa760e01b8152336004820152602490fd5b916001600160a01b03808416928315610b0b5716928315610af3575f9083825281602052604082205490838210610ac1575091604082827fddf252ad1be2c89b69c2b068fc378daa952ba7f163c4a11628f55a4df523b3ef958760209652828652038282205586815220818154019055604051908152a3565b60405163391434e360e21b81526001600160a01b03919091166004820152602481019190915260448101839052606490fd5b60405163ec442f0560e01b81525f6004820152602490fd5b604051634b637e8f60e11b81525f6004820152602490fd5b6001600160a01b03165f9081526007602052604081205460031115610bad5760066020526040812054908115610ba8576201518080830192838111610b945783421015610b8d5742900301918211610b79575090565b634e487b7160e01b81526011600452602490fd5b5050905090565b634e487b7160e01b83526011600452602483fd5b905090565b505f199056fea2646970667358221220098eaf58bed48faa36c38d9d36f08f3bca15cdd66e2f8a9f4723e68bad162a4c64736f6c63430008140033","linkReferences":{}},"methodIdentifiers":{"FAUCET_AMOUNT()":"76697640","FAUCET_COOLDOWN()":"7d1d5d19","MAX_FAUCET_CLAIMS()":"3966c493","allowance(address,address)":"dd62ed3e","approve(address,uint256)":"095ea7b3","balanceOf(address)":"70a08231","claimFaucet()":"4fe15335","decimals()":"313ce567","faucetClaimCount(address)":"06d2571c","lastFaucetClaim(address)":"8a877205","mintTo(address,uint256)":"449a52f8","name()":"06fdde03","owner()":"8da5cb5b","renounceOwnership()":"715018a6","symbol()":"95d89b41","timeUntilNextClaim(address)":"92d82dbe","totalSupply()":"18160ddd","transfer(address,uint256)":"a9059cbb","transferFrom(address,address,uint256)":"23b872dd","transferOwnership(address)":"f2fde38b"},"id":25}