{"abi":[{"type":"constructor","inputs":[{"name":"_modal","type":"address","internalType":"address"}],"stateMutability":"nonpayable"},{"type":"function","name":"createStream","inputs":[{"name":"_streamDetails","type":"tuple[]","internalType":"struct SalaryStreaming.StreamDetails[]","components":[{"name":"name","type":"string","internalType":"string"},{"name":"recipient","type":"address","internalType":"address"},{"name":"amount","type":"uint256","internalType":"uint256"}]},{"name":"intervalType","type":"uint8","internalType":"enum SalaryStreaming.IntervalType"}],"outputs":[],"stateMutability":"nonpayable"},{"type":"function","name":"dailyStreams","inputs":[{"name":"","type":"uint256","internalType":"uint256"}],"outputs":[{"name":"id","type":"uint256","internalType":"uint256"},{"name":"recipient","type":"address","internalType":"address"},{"name":"amount","type":"uint256","internalType":"uint256"},{"name":"lastPayment","type":"uint256","internalType":"uint256"},{"name":"startTime","type":"uint256","internalType":"uint256"},{"name":"intervalType","type":"uint8","internalType":"enum SalaryStreaming.IntervalType"},{"name":"active","type":"bool","internalType":"bool"},{"name":"name","type":"string","internalType":"string"},{"name":"streamOwner","type":"address","internalType":"address"}],"stateMutability":"view"},{"type":"function","name":"disburseDaily","inputs":[],"outputs":[],"stateMutability":"nonpayable"},{"type":"function","name":"disburseMonthly","inputs":[],"outputs":[],"stateMutability":"nonpayable"},{"type":"function","name":"fees","inputs":[],"outputs":[{"name":"","type":"uint256","internalType":"uint256"}],"stateMutability":"view"},{"type":"function","name":"getAllDailyStreams","inputs":[],"outputs":[{"name":"","type":"tuple[]","internalType":"struct SalaryStreaming.Stream[]","components":[{"name":"id","type":"uint256","internalType":"uint256"},{"name":"recipient","type":"address","internalType":"address"},{"name":"amount","type":"uint256","internalType":"uint256"},{"name":"lastPayment","type":"uint256","internalType":"uint256"},{"name":"startTime","type":"uint256","internalType":"uint256"},{"name":"intervalType","type":"uint8","internalType":"enum SalaryStreaming.IntervalType"},{"name":"active","type":"bool","internalType":"bool"},{"name":"name","type":"string","internalType":"string"},{"name":"streamOwner","type":"address","internalType":"address"}]}],"stateMutability":"view"},{"type":"function","name":"getAllMonthlyStreams","inputs":[],"outputs":[{"name":"","type":"tuple[]","internalType":"struct SalaryStreaming.Stream[]","components":[{"name":"id","type":"uint256","internalType":"uint256"},{"name":"recipient","type":"address","internalType":"address"},{"name":"amount","type":"uint256","internalType":"uint256"},{"name":"lastPayment","type":"uint256","internalType":"uint256"},{"name":"startTime","type":"uint256","internalType":"uint256"},{"name":"intervalType","type":"uint8","internalType":"enum SalaryStreaming.IntervalType"},{"name":"active","type":"bool","internalType":"bool"},{"name":"name","type":"string","internalType":"string"},{"name":"streamOwner","type":"address","internalType":"address"}]}],"stateMutability":"view"},{"type":"function","name":"modalContract","inputs":[],"outputs":[{"name":"","type":"address","internalType":"contract ModalContract"}],"stateMutability":"view"},{"type":"function","name":"monthlyStreams","inputs":[{"name":"","type":"uint256","internalType":"uint256"}],"outputs":[{"name":"id","type":"uint256","internalType":"uint256"},{"name":"recipient","type":"address","internalType":"address"},{"name":"amount","type":"uint256","internalType":"uint256"},{"name":"lastPayment","type":"uint256","internalType":"uint256"},{"name":"startTime","type":"uint256","internalType":"uint256"},{"name":"intervalType","type":"uint8","internalType":"enum SalaryStreaming.IntervalType"},{"name":"active","type":"bool","internalType":"bool"},{"name":"name","type":"string","internalType":"string"},{"name":"streamOwner","type":"address","internalType":"address"}],"stateMutability":"view"},{"type":"function","name":"pauseDailyStream","inputs":[{"name":"_streamId","type":"uint256","internalType":"uint256"}],"outputs":[],"stateMutability":"nonpayable"},{"type":"function","name":"pauseMonthlyStream","inputs":[{"name":"_streamId","type":"uint256","internalType":"uint256"}],"outputs":[],"stateMutability":"nonpayable"},{"type":"function","name":"resumeDailyStream","inputs":[{"name":"_streamId","type":"uint256","internalType":"uint256"}],"outputs":[],"stateMutability":"nonpayable"},{"type":"function","name":"resumeMonthlyStream","inputs":[{"name":"_streamId","type":"uint256","internalType":"uint256"}],"outputs":[],"stateMutability":"nonpayable"},{"type":"function","name":"streamIdsByAddress","inputs":[{"name":"","type":"address","internalType":"address"}],"outputs":[{"name":"","type":"uint256","internalType":"uint256"}],"stateMutability":"view"},{"type":"function","name":"streamsById","inputs":[{"name":"","type":"uint256","internalType":"uint256"}],"outputs":[{"name":"id","type":"uint256","internalType":"uint256"},{"name":"recipient","type":"address","internalType":"address"},{"name":"amount","type":"uint256","internalType":"uint256"},{"name":"lastPayment","type":"uint256","internalType":"uint256"},{"name":"startTime","type":"uint256","internalType":"uint256"},{"name":"intervalType","type":"uint8","internalType":"enum SalaryStreaming.IntervalType"},{"name":"active","type":"bool","internalType":"bool"},{"name":"name","type":"string","internalType":"string"},{"name":"streamOwner","type":"address","internalType":"address"}],"stateMutability":"view"},{"type":"event","name":"StreamCreated","inputs":[{"name":"streamId","type":"uint256","indexed":true,"internalType":"uint256"},{"name":"recipient","type":"address","indexed":true,"internalType":"address"},{"name":"intervalType","type":"uint8","indexed":false,"internalType":"enum SalaryStreaming.IntervalType"}],"anonymous":false},{"type":"event","name":"StreamPaused","inputs":[{"name":"recipient","type":"address","indexed":true,"internalType":"address"},{"name":"intervalType","type":"uint8","indexed":false,"internalType":"enum SalaryStreaming.IntervalType"}],"anonymous":false},{"type":"event","name":"StreamResumed","inputs":[{"name":"recipient","type":"address","indexed":true,"internalType":"address"},{"name":"intervalType","type":"uint8","indexed":false,"internalType":"enum SalaryStreaming.IntervalType"}],"anonymous":false},{"type":"event","name":"StreamStopped","inputs":[{"name":"recipient","type":"address","indexed":true,"internalType":"address"},{"name":"intervalType","type":"uint8","indexed":false,"internalType":"enum SalaryStreaming.IntervalType"}],"anonymous":false},{"type":"event","name":"disbursementSuccessful","inputs":[{"name":"sender","type":"address","indexed":false,"internalType":"address"},{"name":"recipient","type":"address","indexed":false,"internalType":"address"},{"name":"amount","type":"uint256","indexed":false,"internalType":"uint256"}],"anonymous":false}],"bytecode":{"object":"0x60803461008257601f61173c38819003918201601f19168301916001600160401b038311848410176100865780849260209460405283398101031261008257516001600160a01b03811690819003610082576729a2241af62c00006001555f6006555f60075560018060a01b03195f5416175f556040516116a1908161009b8239f35b5f80fd5b634e487b7160e01b5f52604160045260245ffdfe60806040526004361015610011575f80fd5b5f803560e01c806310edac7714611109578063211b35ba146110ae578063217b2fc814611086578063223c539214610fe15780632cba4a8814610f2f5780633e58ecc214610794578063509ecc9214610757578063641794fd146106ac578063913e90cf1461062857806394885bc7146104d25780639af1d35a146104b4578063aaa0fea9146103a5578063c9c632671461037e578063ddf6d888146102575763e17b9bf5146100bf575f80fd5b34610254578060031936011261025457805b6002908154811015610250576005916100e9826113f1565b5060ff6001948592015460081c1615151461010f575b5061010a91506114fb565b6100d1565b83546001600160a01b03908116939085610128856113f1565b50958260078098015416838561013d896113f1565b50015416918661014c896113f1565b50015490803b1561024c576040516317d5759960e31b81526001600160a01b039384166004820152939092166024840152604483015282908290606490829084905af1801561024157610223575b50509061021a827fe0c55cf5f17aac7cd6df9d9fa80f51bff7d45bb49877cecf40cdd4f5cee2b053949361010a976101d1886113f1565b50015416926101df876113f1565b50015416926101ed866113f1565b500154604080516001600160a01b0394851681529490931660208501529183019190915281906060820190565b0390a15f6100ff565b6102309094939294611211565b61023d579091855f61019a565b8580fd5b6040513d84823e3d90fd5b8480fd5b8280f35b80fd5b5034610254578060031936011261025457600380549067ffffffffffffffff821161036a576040519260206005916102938286851b0187611225565b848652838152917fc2575a0e9e593c00f959f8c92f12db2869c3395a3b0502d05e2516446f71f85b908287015b8685106102d957604051806102d58a82611429565b0390f35b60019084604051916102ea836111e0565b85548352838060a01b0392838588015416838201526002870154604082015289870154606082015260048701546080820152858701549360ff61033281871660a0850161158a565b600895861c16151560c083015261034b60068901611247565b60e08301526007880154166101008201528152019301940193916102c0565b634e487b7160e01b83526041600452602483fd5b5034610254578060031936011261025457546040516001600160a01b039091168152602090f35b5034610254578060031936011261025457600280549067ffffffffffffffff821161036a576040519260206005916103e18286851b0187611225565b848652838152917f405787fa12a823e0f2b7631cc41b3ba8828b3321ca811111fa75cd3aa3bb5ace908287015b86851061042357604051806102d58a82611429565b6001908460405191610434836111e0565b85548352838060a01b0392838588015416838201528987015460408201526003870154606082015260048701546080820152858701549360ff61047c81871660a0850161158a565b600895861c16151560c083015261049560068901611247565b60e083015260078801541661010082015281520193019401939161040e565b50346102545780600319360112610254576020600154604051908152f35b5034610254578060031936011261025457805b60035481101561062457806104fb6005926113a5565b5060ff6001938492015460081c16151514610520575b61051b91506114fb565b6104e5565b82546001600160a01b039290831690610538836113a5565b5093858160078097015416828461054e886113a5565b500154169061055c876113a5565b509560028097015490803b1561024c576040516317d5759960e31b81526001600160a01b039384166004820152939092166024840152604483015282908290606490829084905af180156102415761060a575b505090610602827fe0c55cf5f17aac7cd6df9d9fa80f51bff7d45bb49877cecf40cdd4f5cee2b053949361051b976105e6886113a5565b50015416926105f4876113a5565b50015416926101ed866113a5565b0390a1610511565b6106179094939294611211565b61023d579091855f6105af565b5080f35b5034610254576020366003190112610254576004356002548110156106a857610650906113f1565b508054906102d560018060a01b039283600184015416926002810154946003820154926004830154600584015492600761068c60068701611247565b950154169460405198899860ff808760081c169616948a611347565b5080fd5b50346102545760203660031901126102545761071c6004356106e060ff60056106d4846113f1565b50015460081c166115dc565b60056106eb826113f1565b500161ff001990818154169055610701826113f1565b505484526004602052600560408520019081541690556113f1565b506001808060a01b03910154167fb1db06be2dc521097a753a5368ba4993037fff289864fbb33e0954e106a83af2602060405160018152a280f35b5034610254576020366003190112610254576004356001600160a01b038116908190036106a8578160409160209352600583522054604051908152f35b50346102545760403660031901126102545760043567ffffffffffffffff81116106a857366023820112156106a85767ffffffffffffffff8160040135116106a857366024826004013560051b830101116106a85760243560038110156108cd5760018103610c125750815b816004013581106108d15750505b80546001546001600160a01b039291831690813b156108cd576040516302b7b30160e21b815233600482015260248101919091529082908290604490829084905af18015610241576108be575b50809181541660015490803b156108ba576040516315c9c46160e21b81526001600160a01b0382166004820152602481019290925282908290604490829084905af18015610241576108aa5750f35b6108b390611211565b6102545780f35b5050fd5b6108c790611211565b5f61085b565b8280fd5b6006546108f160206108eb8486600401356024880161151d565b01611543565b61096c60406109088587600401356024890161151d565b013561092561091f86886004013560248a0161151d565b80611557565b909160405194610934866111e0565b8686526001600160a01b03166020860152604085015242606085018190526080850152600160a0850181905260c08501523691611596565b60e082015233610100820152600254600160401b811015610bfe5780600161099792016002556113f1565b610bea57815181556001810160018060a01b036020840151166bffffffffffffffffffffffff60a01b8254161790556040820151600282015560608201516003820155608082015160048201556005810160a08301516003811015610bd657815460c085015161ff0090151560081b1660ff9290921661ffff199091161717905560e082015180519067ffffffffffffffff8211610bc257610a3c60068401546111a8565b601f8111610b7e575b50602090601f8311600114610b09579180610af997969594926007948b92610afe575b50508160011b915f199060031b1c19161760068201555b61010090920151910180546001600160a01b0319166001600160a01b03928316179055610ab960206108eb85600489013560248a0161151d565b16907f23644334b65907dd89de3cc9ab3ff2ec6a1260d20cf5d0a0cec567b1bd71b838602060405160018152a3610af16006546114fb565b6006556114fb565b610800565b015190505f80610a68565b906006840189526020892091895b601f1985168110610b66575092610af9979695949260019260079583601f19811610610b4e575b505050811b016006820155610a7f565b01515f1960f88460031b161c191690555f8080610b3e565b91926020600181928685015181550194019201610b17565b60068401895260208920601f840160051c810160208510610bbb575b601f830160051c82018110610bb0575050610a45565b8a8155600101610b9a565b5080610b9a565b634e487b7160e01b88526041600452602488fd5b634e487b7160e01b88526021600452602488fd5b634e487b7160e01b86526004869052602486fd5b634e487b7160e01b86526041600452602486fd5b600214610c20575b5061080e565b815b81600401358110610c335750610c1a565b600754610c4d60206108eb8486600401356024880161151d565b610cc26040610c648587600401356024890161151d565b0135610c7b61091f86886004013560248a0161151d565b909160405194610c8a866111e0565b8686526001600160a01b03166020860152604085015242606085018190526080850152600260a0850152600160c08501523691611596565b60e082015233610100820152600354600160401b811015610bfe57806001610ced92016003556113a5565b610bea57815181556001810160018060a01b036020840151166bffffffffffffffffffffffff60a01b82541617905560408201516002820155606082015160038201556080820151600482015560a08201516003811015610f1b5760058201805460c085015161ff0090151560081b1660ff9390931661ffff199091161791909117905560e082015180519067ffffffffffffffff8211610bc257610d9560068401546111a8565b601f8111610ed7575b50602090601f8311600114610e62579180610e5297969594926007948b92610e57575b50508160011b915f199060031b1c19161760068201555b61010090920151910180546001600160a01b0319166001600160a01b03928316179055610e1260206108eb85600489013560248a0161151d565b16907f23644334b65907dd89de3cc9ab3ff2ec6a1260d20cf5d0a0cec567b1bd71b838602060405160028152a3610e4a6007546114fb565b6007556114fb565b610c22565b015190505f80610dc1565b906006840189526020892091895b601f1985168110610ebf575092610e52979695949260019260079583601f19811610610ea7575b505050811b016006820155610dd8565b01515f1960f88460031b161c191690555f8080610e97565b91926020600181928685015181550194019201610e70565b60068401895260208920601f840160051c810160208510610f14575b601f830160051c82018110610f09575050610d9e565b8a8155600101610ef3565b5080610ef3565b634e487b7160e01b87526021600452602487fd5b503461025457602036600319011261025457610fa6600435610f6460ff6005610f57846113f1565b50015460081c161561161f565b6005610f6f826113f1565b500161010061ff0019918183825416179055610f8a836113f1565b50548552600460205260056040862001918254161790556113f1565b506001808060a01b03910154167f279c2e557075edfbf05bd92f8fb064dda62092de41748be8ab96204cce281eb7602060405160018152a280f35b50346102545760203660031901126102545761104b60043561100960ff6005610f57846113a5565b6005611014826113a5565b500161010061ff001991818382541617905561102f836113a5565b50548552600460205260056040862001918254161790556113a5565b506001808060a01b03910154167f279c2e557075edfbf05bd92f8fb064dda62092de41748be8ab96204cce281eb7602060405160028152a280f35b5034610254576020366003190112610254576004356003548110156106a857610650906113a5565b50346102545760203660031901126102545760409060043581526004602052208054906102d560018060a01b039283600184015416926002810154946003820154926004830154600584015492600761068c60068701611247565b50346102545760203660031901126102545761116d60043561113160ff60056106d4846113a5565b600561113c826113a5565b500161ff001990818154169055611152826113a5565b505484526004602052600560408520019081541690556113a5565b506001808060a01b03910154167fb1db06be2dc521097a753a5368ba4993037fff289864fbb33e0954e106a83af2602060405160028152a280f35b90600182811c921680156111d6575b60208310146111c257565b634e487b7160e01b5f52602260045260245ffd5b91607f16916111b7565b610120810190811067ffffffffffffffff8211176111fd57604052565b634e487b7160e01b5f52604160045260245ffd5b67ffffffffffffffff81116111fd57604052565b90601f8019910116810190811067ffffffffffffffff8211176111fd57604052565b9060405191825f82549261125a846111a8565b9081845260019485811690815f146112c55750600114611285575b505061128392500383611225565b565b909391505f52602090815f20935f915b8183106112ad57505061128393508201015f80611275565b85548884018501529485019487945091830191611295565b91505061128394506020925060ff191682840152151560051b8201015f80611275565b9060038210156112f55752565b634e487b7160e01b5f52602160045260245ffd5b91908251928382525f5b848110611333575050825f602080949584010152601f8019910116010190565b602081830181015184830182015201611313565b97939461139e9561010098946113869498939c9b9c8b5260018060a01b0380991660208c015260408b015260608a0152608089015260a08801906112e8565b151560c08601526101208060e0870152850190611309565b9416910152565b6003548110156113dd5760035f5260031b7fc2575a0e9e593c00f959f8c92f12db2869c3395a3b0502d05e2516446f71f85b01905f90565b634e487b7160e01b5f52603260045260245ffd5b6002548110156113dd5760025f5260031b7f405787fa12a823e0f2b7631cc41b3ba8828b3321ca811111fa75cd3aa3bb5ace01905f90565b602080820190808352835180925260409283810182858560051b8401019601945f925b85841061145d575050505050505090565b909192939495968580600192603f198582030187528a519081518152848060a01b039182848201511684830152878101518883015260608082015190830152608080820151908301526114b860a080830151908401906112e8565b60c0808201511515908301526114de60e080830151906101208091860152840190611309565b92610100809201511691015299019401940192959493919061144c565b5f1981146115095760010190565b634e487b7160e01b5f52601160045260245ffd5b91908110156113dd5760051b81013590605e198136030182121561153f570190565b5f80fd5b356001600160a01b038116810361153f5790565b903590601e198136030182121561153f570180359067ffffffffffffffff821161153f5760200191813603831361153f57565b60038210156112f55752565b92919267ffffffffffffffff82116111fd57604051916115c0601f8201601f191660200184611225565b82948184528183011161153f578281602093845f960137010152565b156115e357565b60405162461bcd60e51b815260206004820152601460248201527353747265616d206973206e6f742061637469766560601b6044820152606490fd5b1561162657565b60405162461bcd60e51b815260206004820152601860248201527f53747265616d20697320616c72656164792061637469766500000000000000006044820152606490fdfea2646970667358221220562f546c1106e4e317d7f59f9a945f8863267ec1e8e383d7b7d976f361e1451d64736f6c63430008140033","linkReferences":{}},"methodIdentifiers":{"createStream((string,address,uint256)[],uint8)":"3e58ecc2","dailyStreams(uint256)":"913e90cf","disburseDaily()":"e17b9bf5","disburseMonthly()":"94885bc7","fees()":"9af1d35a","getAllDailyStreams()":"aaa0fea9","getAllMonthlyStreams()":"ddf6d888","modalContract()":"c9c63267","monthlyStreams(uint256)":"217b2fc8","pauseDailyStream(uint256)":"641794fd","pauseMonthlyStream(uint256)":"10edac77","resumeDailyStream(uint256)":"2cba4a88","resumeMonthlyStream(uint256)":"223c5392","streamIdsByAddress(address)":"509ecc92","streamsById(uint256)":"211b35ba"},"id":26}