{"abi":[{"type":"constructor","inputs":[{"name":"_modal","type":"address","internalType":"address"},{"name":"_paymentAddr","type":"address","internalType":"address"}],"stateMutability":"nonpayable"},{"type":"function","name":"activateSubscriptionPlan","inputs":[{"name":"planId","type":"uint256","internalType":"uint256"}],"outputs":[],"stateMutability":"nonpayable"},{"type":"function","name":"activeSubscriptions","inputs":[{"name":"","type":"address","internalType":"address"},{"name":"","type":"uint256","internalType":"uint256"}],"outputs":[{"name":"","type":"bool","internalType":"bool"}],"stateMutability":"view"},{"type":"function","name":"addSubscriptionPlan","inputs":[{"name":"_name","type":"string","internalType":"string"},{"name":"_fee","type":"uint256","internalType":"uint256"}],"outputs":[],"stateMutability":"nonpayable"},{"type":"function","name":"balances","inputs":[{"name":"","type":"address","internalType":"address"}],"outputs":[{"name":"","type":"uint256","internalType":"uint256"}],"stateMutability":"view"},{"type":"function","name":"charges","inputs":[],"outputs":[{"name":"","type":"uint256","internalType":"uint256"}],"stateMutability":"view"},{"type":"function","name":"deactivateSubscriptionPlan","inputs":[{"name":"planId","type":"uint256","internalType":"uint256"}],"outputs":[],"stateMutability":"nonpayable"},{"type":"function","name":"getAllSubscriptionPlans","inputs":[],"outputs":[{"name":"","type":"tuple[]","internalType":"struct SubscriptionService.SubscriptionPlan[]","components":[{"name":"name","type":"string","internalType":"string"},{"name":"fee","type":"uint256","internalType":"uint256"},{"name":"active","type":"bool","internalType":"bool"}]}],"stateMutability":"view"},{"type":"function","name":"getSubscriptionsOfAddress","inputs":[{"name":"_add","type":"address","internalType":"address"}],"outputs":[{"name":"","type":"tuple[]","internalType":"struct SubscriptionService.Subscriber[]","components":[{"name":"active","type":"bool","internalType":"bool"},{"name":"name","type":"string","internalType":"string"},{"name":"fee","type":"uint256","internalType":"uint256"},{"name":"userAddress","type":"address","internalType":"address"},{"name":"subPlanId","type":"uint256","internalType":"uint256"},{"name":"email","type":"string","internalType":"string"},{"name":"password","type":"string","internalType":"string"}]}],"stateMutability":"view"},{"type":"function","name":"modalContract","inputs":[],"outputs":[{"name":"","type":"address","internalType":"contract ModalContract"}],"stateMutability":"view"},{"type":"function","name":"owner","inputs":[],"outputs":[{"name":"","type":"address","internalType":"address"}],"stateMutability":"view"},{"type":"function","name":"pauseSubscription","inputs":[{"name":"planId","type":"uint256","internalType":"uint256"}],"outputs":[],"stateMutability":"nonpayable"},{"type":"function","name":"processSubscriptionPayments","inputs":[],"outputs":[],"stateMutability":"nonpayable"},{"type":"function","name":"resumeSubscription","inputs":[{"name":"planId","type":"uint256","internalType":"uint256"}],"outputs":[],"stateMutability":"nonpayable"},{"type":"function","name":"startSubscription","inputs":[{"name":"planId","type":"uint256","internalType":"uint256"},{"name":"_email","type":"string","internalType":"string"},{"name":"_password","type":"string","internalType":"string"}],"outputs":[],"stateMutability":"nonpayable"},{"type":"function","name":"stoppedSubscriptions","inputs":[{"name":"","type":"address","internalType":"address"},{"name":"","type":"uint256","internalType":"uint256"}],"outputs":[{"name":"","type":"bool","internalType":"bool"}],"stateMutability":"view"},{"type":"function","name":"subArr","inputs":[{"name":"","type":"uint256","internalType":"uint256"}],"outputs":[{"name":"active","type":"bool","internalType":"bool"},{"name":"name","type":"string","internalType":"string"},{"name":"fee","type":"uint256","internalType":"uint256"},{"name":"userAddress","type":"address","internalType":"address"},{"name":"subPlanId","type":"uint256","internalType":"uint256"},{"name":"email","type":"string","internalType":"string"},{"name":"password","type":"string","internalType":"string"}],"stateMutability":"view"},{"type":"function","name":"subs","inputs":[{"name":"","type":"address","internalType":"address"},{"name":"","type":"uint256","internalType":"uint256"}],"outputs":[{"name":"active","type":"bool","internalType":"bool"},{"name":"name","type":"string","internalType":"string"},{"name":"fee","type":"uint256","internalType":"uint256"},{"name":"userAddress","type":"address","internalType":"address"},{"name":"subPlanId","type":"uint256","internalType":"uint256"},{"name":"email","type":"string","internalType":"string"},{"name":"password","type":"string","internalType":"string"}],"stateMutability":"view"},{"type":"function","name":"updateSubscriptionPlan","inputs":[{"name":"planId","type":"uint256","internalType":"uint256"},{"name":"_name","type":"string","internalType":"string"},{"name":"_fee","type":"uint256","internalType":"uint256"}],"outputs":[],"stateMutability":"nonpayable"},{"type":"event","name":"SubscriptionPaid","inputs":[{"name":"from","type":"address","indexed":false,"internalType":"address"},{"name":"to","type":"address","indexed":false,"internalType":"address"},{"name":"fee","type":"uint256","indexed":false,"internalType":"uint256"}],"anonymous":false},{"type":"event","name":"SubscriptionPaused","inputs":[{"name":"subscriber","type":"address","indexed":true,"internalType":"address"},{"name":"planId","type":"uint256","indexed":false,"internalType":"uint256"}],"anonymous":false},{"type":"event","name":"SubscriptionPlanActivated","inputs":[{"name":"planId","type":"uint256","indexed":false,"internalType":"uint256"}],"anonymous":false},{"type":"event","name":"SubscriptionPlanCreated","inputs":[{"name":"creator","type":"address","indexed":false,"internalType":"address"},{"name":"planfee","type":"uint256","indexed":false,"internalType":"uint256"},{"name":"planName","type":"string","indexed":false,"internalType":"string"}],"anonymous":false},{"type":"event","name":"SubscriptionPlanDeactivated","inputs":[{"name":"planId","type":"uint256","indexed":false,"internalType":"uint256"}],"anonymous":false},{"type":"event","name":"SubscriptionPlanUpdated","inputs":[{"name":"creator","type":"address","indexed":false,"internalType":"address"},{"name":"planfee","type":"uint256","indexed":false,"internalType":"uint256"},{"name":"planName","type":"string","indexed":false,"internalType":"string"}],"anonymous":false},{"type":"event","name":"SubscriptionResumed","inputs":[{"name":"subscriber","type":"address","indexed":true,"internalType":"address"},{"name":"planId","type":"uint256","indexed":false,"internalType":"uint256"}],"anonymous":false},{"type":"event","name":"SubscriptionStarted","inputs":[{"name":"subscriber","type":"address","indexed":true,"internalType":"address"},{"name":"planId","type":"uint256","indexed":false,"internalType":"uint256"}],"anonymous":false},{"type":"error","name":"AlreadySubscribedToThisPlan","inputs":[]},{"type":"error","name":"InsufficientFunds","inputs":[]},{"type":"error","name":"InvalidIdPlan","inputs":[]},{"type":"error","name":"InvalidPlanId","inputs":[]},{"type":"error","name":"OnlyTheOwnerCanCallThisFunction","inputs":[]},{"type":"error","name":"PlanIsNotActive","inputs":[]},{"type":"error","name":"SubscriptionActive","inputs":[]},{"type":"error","name":"SubscriptionHasNotBeenStopped","inputs":[]},{"type":"error","name":"SubscriptionNotActive","inputs":[]}],"bytecode":{"object":"0x6080346100a557601f62001c1538819003918201601f19168301916001600160401b038311848410176100a95780849260409485528339810103126100a557610053602061004c836100bd565b92016100bd565b670de0b6b3a76400006005555f80546001600160a01b03199081166001600160a01b0394851617909155600180548216331790556002805490911691909216179055604051611b439081620000d28239f35b5f80fd5b634e487b7160e01b5f52604160045260245ffd5b51906001600160a01b03821682036100a55756fe6080806040526004361015610012575f80fd5b5f9060e08235811c918263023a584e146114e9575081630588dfe6146114625781631643a645146113195750806327e235e3146112e057806329fd9ab5146111b657806341f23f0a146110ec57806345d799861461108257806373c72d9114610fe257806375623f8414610f335780638da5cb5b14610f0a5780639cc1acea14610411578063b2a68771146103c8578063bdf92c561461037f578063c628ea1914610233578063c9c632671461020c578063d6ce263414610185578063e00cda26146101675763e34a6233146100e6575f80fd5b3461016457602036600319011261016457600435610102611a5d565b60065481101561015257602081600261013b7f7219b01408583473d220c072046d16d62740228c2aa308436ebaa2350b1acc4f946118ab565b5001805460ff19166001179055604051908152a180f35b60405163704cbafd60e11b8152600490fd5b80fd5b50346101645780600319360112610164576020600554604051908152f35b503461016457602036600319011261016457600435600354811015610208576101ad906115fd565b5060ff8154166102046101c260018401611719565b60028401546003850154600486015492959192906001600160a01b03166101f760066101f060058601611719565b9401611719565b93604051978897886117f8565b0390f35b5080fd5b5034610164578060031936011261016457546040516001600160a01b039091168152602090f35b5034610164578060031936011261016457805b60035481101561037b5761026261025c826115fd565b50611a83565b805161028e575b505f19811461027a57600101610246565b634e487b7160e01b82526011600452602482fd5b60018060a01b0390818454169060608101858482511692600293604087865416920195865190803b15610377576040516317d5759960e31b81526001600160a01b039384166004820152939092166024840152604483015282908290606490829084905af1801561036c57610354575b50505190549151604080516001600160a01b0393861684168152949093169091166020840152908201527f61d5a030a62b111bb4620b2384fda4f668ab96926be144af11c9b5b4db2a260e90606090a15f610269565b61035d906116e5565b61036857855f6102fe565b8580fd5b6040513d84823e3d90fd5b8480fd5b5080f35b50346101645760403660031901126101645760209060ff906040906001600160a01b036103aa6115e3565b16815260098452818120602435825284522054166040519015158152f35b50346101645760403660031901126101645760209060ff906040906001600160a01b036103f36115e3565b16815260088452818120602435825284522054166040519015158152f35b5034610164576060366003190112610164576024356001600160401b03811161020857610442903690600401611856565b906044356001600160401b03811161020857610462903690600401611856565b6006546004351015610ef85760ff600261047d6004356118ab565b5001541615610ee657338252600860205260408220600435835260205260ff604083205416610ed457815460405163c84aae1760e01b815233600482015290602090829060249082906001600160a01b03165afa908115610ec9578391610e93575b5060016104ed6004356118ab565b5001541015610e815760405192610503846116ca565b60606020850152826040850152826060850152826080850152606060a0850152606060c08501526001845261054261053c6004356118ab565b50611719565b602085015260016105546004356118ab565b5001546040850152336060850152600435608085015260a084015260c0830152600354600160401b811015610e6d5780600161059392016003556115fd565b919091610c16576105b383511515839060ff801983541691151516179055565b60208301519283516001600160401b038111610c02576105d66001850154611663565b601f8111610e29575b506020601f8211600114610dbe5783949582939492610db3575b50508160011b915f199060031b1c19161760018401555b604081015160028401556003830160018060a01b036060830151166bffffffffffffffffffffffff60a01b8254161790556080810151600484015560a08101519283516001600160401b038111610a765761066e6005830154611663565b601f8111610d6f575b506020601f8211600114610d045784958293949592610cf9575b50508160011b915f199060031b1c19161760058201555b60c08201518051906001600160401b038211610ce5576106cb6006840154611663565b601f8111610ca1575b50602090601f8311600114610c355760069291869183610c2a575b50508160011b915f199060031b1c1916179101555b338252600860205260408220600435835260205260408220600160ff19825416179055338252600460205260408220805490600160401b821015610a7657906107529160018201815561164a565b929092610c165761077282511515849060ff801983541691151516179055565b60208201519283516001600160401b038111610c02576107956001830154611663565b601f8111610bbe575b506020601f8211600114610b535783949582939492610b48575b50508160011b915f199060031b1c19161760018201555b604083015160028201556003810160018060a01b036060850151166bffffffffffffffffffffffff60a01b8254161790556080830151600482015560a08301519283516001600160401b038111610a765761082d6005840154611663565b601f8111610b04575b506020601f8211600114610a95578190859660c0959692610a8a575b50508160011b915f199060031b1c19161760058401555b01518051906001600160401b038211610a76576108896006840154611663565b601f8111610a2e575b50602090601f83116001146109c557600692918591836109ba575b50508160011b915f199060031b1c1916179101555b805460055482916001600160a01b031690813b156109a7576040516302b7b30160e21b8152336004820152602481019190915291908290604490829084905af1801561036c576109ab575b50805460055482916001600160a01b0316803b156109a7576040516315c9c46160e21b81526001600160a01b0382166004820152602481019290925282908290604490829084905af1801561036c57610993575b5060405160043581527f3569431152110722ac0db636dd27ae1423bce34e35a19c281a7b4fcbb280ceb560203392a280f35b61099c906116e5565b61016457805f610961565b5050fd5b6109b4906116e5565b5f61090d565b015190505f806108ad565b600684018552602085209190601f198416865b818110610a16575091600193918560069694106109fe575b505050811b019101556108c2565b01515f1960f88460031b161c191690555f80806109f0565b929360206001819287860151815501950193016109d8565b60068401855260208520601f840160051c81019160208510610a6c575b601f0160051c01905b818110610a615750610892565b858155600101610a54565b9091508190610a4b565b634e487b7160e01b84526041600452602484fd5b015190505f80610852565b6005840185526020852095855b601f1984168110610aec575095829160c0959697600194601f19811610610ad4575b505050811b016005840155610869565b01515f1960f88460031b161c191690555f8080610ac4565b82820151885560019097019660209283019201610aa2565b60058401855260208520601f830160051c810160208410610b41575b601f830160051c82018110610b36575050610836565b868155600101610b20565b5080610b20565b015190505f806107b8565b6001830184526020842090845b601f1984168110610ba6575060019394959683601f19811610610b8e575b505050811b0160018201556107cf565b01515f1960f88460031b161c191690555f8080610b7e565b9091602060018192858b015181550193019101610b60565b60018301845260208420601f830160051c810160208410610bfb575b601f830160051c82018110610bf057505061079e565b858155600101610bda565b5080610bda565b634e487b7160e01b83526041600452602483fd5b634e487b7160e01b81526004819052602490fd5b015190505f806106ef565b906006840186526020862091865b601f1985168110610c895750918391600193600695601f19811610610c71575b505050811b01910155610704565b01515f1960f88460031b161c191690555f8080610c63565b91926020600181928685015181550194019201610c43565b60068401865260208620601f840160051c810160208510610cde575b601f830160051c82018110610cd35750506106d4565b878155600101610cbd565b5080610cbd565b634e487b7160e01b85526041600452602485fd5b015190505f80610691565b6005830185526020852090855b601f1984168110610d57575060019394959683601f19811610610d3f575b505050811b0160058201556106a8565b01515f1960f88460031b161c191690555f8080610d2f565b9091602060018192858b015181550193019101610d11565b60058301855260208520601f830160051c810160208410610dac575b601f830160051c82018110610da1575050610677565b868155600101610d8b565b5080610d8b565b015190505f806105f9565b6001850184526020842090845b601f1984168110610e11575060019394959683601f19811610610df9575b505050811b016001840155610610565b01515f1960f88460031b161c191690555f8080610de9565b9091602060018192858b015181550193019101610dcb565b60018501845260208420601f830160051c810160208410610e66575b601f830160051c82018110610e5b5750506105df565b858155600101610e45565b5080610e45565b634e487b7160e01b82526041600452602482fd5b60405163356680b760e01b8152600490fd5b90506020813d602011610ec1575b81610eae602093836116f8565b81010312610ebd57515f6104df565b8280fd5b3d9150610ea1565b6040513d85823e3d90fd5b604051631573f7d160e01b8152600490fd5b604051637608867f60e01b8152600490fd5b60405163410c69a160e11b8152600490fd5b50346101645780600319360112610164576001546040516001600160a01b039091168152602090f35b5034610164576060366003190112610164576004356024356001600160401b038111610ebd57610f67903690600401611856565b604435610f72611a5d565b600654831015610ef857610fcc7f3ded2ea4d4a47f2c0f95a2ab940f30b4a5fd1242eb929303cc4d7ebf8d1537dc93610fc660405191610fb18361169b565b858352846020840152600160408401526118ab565b906118e4565b610fdc6040519283923384611a39565b0390a180f35b5034610164576040366003190112610164576004356001600160401b03811161020857611013903690600401611856565b9060243591611020611a5d565b6040519261102d8461169b565b81845280602085015260016040850152600654600160401b811015610a76577f4e72a45132c1e28255bcea6b99a1d7b48cdd158894bcb5f0d609bfe958c134a29394610fc6826001610fcc94016006556118ab565b50346101645760203660031901126101645760043561109f611a5d565b6006548110156101525760208160026110d87fec3829612b80214cc94c5a0e570fa3d828638daf675779283081af31b437adfa946118ab565b5001805460ff19169055604051908152a180f35b50346101645760208060031936011261020857600435903383526008815260408320828452815260ff604084205416156111a4577f0f4b138ba6f86b6732dd5962f2f8427f2c42abaf94b1be851f969f676c47e1a790338452600881526040842083855281526040842060ff1990818154169055338552600982526040852084865282526040852060018282541617905533855260048252611191846040872061164a565b509081541690556040519283523392a280f35b6040516377dba77f60e11b8152600490fd5b50346101645780600319360112610164576006546111d381611af6565b906111e160405192836116f8565b8082526006835260209283830191817ff652222313e28459528d920b65115c16c04f3efc82aaedc97be59f3f377c0d3f845b8383106112965750505050604051928484019085855251809152604084019460408260051b8601019392955b82871061124c5785850386f35b909192938280600192603f19898203018552875190604080611276845160608086528501906117ba565b93858101518685015201511515910152960192019601959291909261123f565b60038860019260409a99979a516112ac8161169b565b6112b586611719565b8152848601548382015260ff6002870154161515604082015281520192019201919096939596611213565b5034610164576020366003190112610164576020906040906001600160a01b036113086115e3565b168152600783522054604051908152f35b90503461020857602080600319360112610ebd576001600160a01b03928361133f6115e3565b16815260048252604081209182549061135782611af6565b9161136560405193846116f8565b8083528183018095855282852085915b83831061143d5750505050604051948186019282875251809352604086019060408460051b8801019594975b8489106113ae5787870388f35b909192939495848061142b600193603f198c82030188528a518051151582526114186113e5858301518a878601528a8501906117ba565b604083015160408501526060898185015116908501526080808401519085015260a08084015190858303908601526117ba565b9160c080920151918184039101526117ba565b980194019801979190949392946113a1565b600785600192611450859a98999a611a83565b81520192019201919095949395611375565b82346101645760403660031901126101645761147c6115e3565b6001600160a01b039081168252600460205260408220805460243591908210156114e557906114aa9161164a565b509061020460ff835416916114c160018501611719565b936002810154916003820154166004820154906101f760066101f060058601611719565b8380fd5b83903461020857602080600319360112610ebd57600435913384526008825260408420838552825260ff6040852054166115d457503383526009815260408320828452815260ff604084205416156115c2577f5b6bc69fe6bce3550786f41abca37faf215624042edf8356aa471b0fcf02480b90338452600881526040842083855281526040842060ff199060018282541617905533855260098252604085208486528252604085208181541690553385526004825260016115ae856040882061164a565b50918254161790556040519283523392a280f35b604051632af6593160e11b8152600490fd5b6314131cfb60e01b8152600490fd5b600435906001600160a01b03821682036115f957565b5f80fd5b6003548110156116365760079060035f52027fc2575a0e9e593c00f959f8c92f12db2869c3395a3b0502d05e2516446f71f85b01905f90565b634e487b7160e01b5f52603260045260245ffd5b8054821015611636575f52600760205f20910201905f90565b90600182811c92168015611691575b602083101461167d57565b634e487b7160e01b5f52602260045260245ffd5b91607f1691611672565b606081019081106001600160401b038211176116b657604052565b634e487b7160e01b5f52604160045260245ffd5b60e081019081106001600160401b038211176116b657604052565b6001600160401b0381116116b657604052565b90601f801991011681019081106001600160401b038211176116b657604052565b9060405191825f82549261172c84611663565b9081845260019485811690815f146117975750600114611757575b5050611755925003836116f8565b565b909391505f52602090815f20935f915b81831061177f57505061175593508201015f80611747565b85548884018501529485019487945091830191611767565b91505061175594506020925060ff191682840152151560051b8201015f80611747565b91908251928382525f5b8481106117e4575050825f602080949584010152601f8019910116010190565b6020818301810151848301820152016117c4565b95919361181d611845956118539997931515895260e060208a015260e08901906117ba565b60408801949094526001600160a01b03166060870152608086015284820360a08601526117ba565b9160c08184039101526117ba565b90565b81601f820112156115f9578035906001600160401b0382116116b6576040519261188a601f8401601f1916602001856116f8565b828452602083830101116115f957815f926020809301838601378301015290565b6006548110156116365760039060065f52027ff652222313e28459528d920b65115c16c04f3efc82aaedc97be59f3f377c0d3f01905f90565b90929192611a265782519283516001600160401b0381116116b6576119098354611663565b601f81116119df575b506020601f821160011461197457918160409260029461175597985f92611969575b50508160011b915f199060031b1c19161784555b602081015160018501550151151591019060ff801983541691151516179055565b015190505f80611934565b601f19821695845f52815f20965f5b8181106119c757509261175596976002959360019383604097106119af575b505050811b018455611948565b01515f1960f88460031b161c191690555f80806119a2565b83830151895560019098019760209384019301611983565b5f84815260208120601f840160051c81019260208510611a1c575b601f0160051c01915b828110611a11575050611912565b818155600101611a03565b90925082906119fa565b634e487b7160e01b5f525f60045260245ffd5b611853939260609260018060a01b03168252602082015281604082015201906117ba565b6001546001600160a01b03163303611a7157565b60405163c3bffb5d60e01b8152600490fd5b90604051611a90816116ca565b60c0611af16006839560ff81541615158552611aae60018201611719565b60208601526002810154604086015260038101546001600160a01b0316606086015260048101546080860152611ae660058201611719565b60a086015201611719565b910152565b6001600160401b0381116116b65760051b6020019056fea2646970667358221220b489f46aa5df40b79abc3cc936603de48482934fe8ca78d3378189d18ff3ed2264736f6c63430008140033","linkReferences":{}},"methodIdentifiers":{"activateSubscriptionPlan(uint256)":"e34a6233","activeSubscriptions(address,uint256)":"b2a68771","addSubscriptionPlan(string,uint256)":"73c72d91","balances(address)":"27e235e3","charges()":"e00cda26","deactivateSubscriptionPlan(uint256)":"45d79986","getAllSubscriptionPlans()":"29fd9ab5","getSubscriptionsOfAddress(address)":"1643a645","modalContract()":"c9c63267","owner()":"8da5cb5b","pauseSubscription(uint256)":"41f23f0a","processSubscriptionPayments()":"c628ea19","resumeSubscription(uint256)":"023a584e","startSubscription(uint256,string,string)":"9cc1acea","stoppedSubscriptions(address,uint256)":"bdf92c56","subArr(uint256)":"d6ce2634","subs(address,uint256)":"0588dfe6","updateSubscriptionPlan(uint256,string,uint256)":"75623f84"},"id":27}